{
  "_format": "hh-sol-artifact-1",
  "contractName": "SharedWalletERC20",
  "sourceName": "contracts/sharedWalletERC20.sol",
  "abi": [
    {
      "inputs": [
        {
          "internalType": "address",
          "name": "addrToken",
          "type": "address"
        }
      ],
      "stateMutability": "nonpayable",
      "type": "constructor"
    },
    {
      "inputs": [
        {
          "internalType": "address",
          "name": "addrNewOwner",
          "type": "address"
        }
      ],
      "name": "addWalletOwner",
      "outputs": [],
      "stateMutability": "nonpayable",
      "type": "function"
    },
    {
      "inputs": [],
      "name": "chkWalletOwner",
      "outputs": [
        {
          "internalType": "bool",
          "name": "",
          "type": "bool"
        }
      ],
      "stateMutability": "view",
      "type": "function"
    },
    {
      "inputs": [
        {
          "internalType": "uint256",
          "name": "intAmt",
          "type": "uint256"
        }
      ],
      "name": "depositMoney",
      "outputs": [],
      "stateMutability": "payable",
      "type": "function"
    },
    {
      "inputs": [],
      "name": "getWalletBalance",
      "outputs": [
        {
          "internalType": "uint256",
          "name": "",
          "type": "uint256"
        }
      ],
      "stateMutability": "view",
      "type": "function"
    },
    {
      "inputs": [],
      "name": "m_token",
      "outputs": [
        {
          "internalType": "contract IERC20",
          "name": "",
          "type": "address"
        }
      ],
      "stateMutability": "view",
      "type": "function"
    },
    {
      "inputs": [
        {
          "internalType": "string",
          "name": "_name",
          "type": "string"
        }
      ],
      "name": "setWalletName",
      "outputs": [],
      "stateMutability": "nonpayable",
      "type": "function"
    },
    {
      "inputs": [],
      "name": "walletBalance",
      "outputs": [
        {
          "internalType": "uint256",
          "name": "",
          "type": "uint256"
        }
      ],
      "stateMutability": "view",
      "type": "function"
    },
    {
      "inputs": [],
      "name": "walletName",
      "outputs": [
        {
          "internalType": "string",
          "name": "",
          "type": "string"
        }
      ],
      "stateMutability": "view",
      "type": "function"
    },
    {
      "inputs": [
        {
          "internalType": "address",
          "name": "_to",
          "type": "address"
        },
        {
          "internalType": "uint256",
          "name": "intAmt",
          "type": "uint256"
        }
      ],
      "name": "withDrawMoney",
      "outputs": [],
      "stateMutability": "payable",
      "type": "function"
    }
  ],
  "bytecode": "0x608060405234801561001057600080fd5b5060405161087038038061087083398101604081905261002f9161006b565b600080546001600160a01b0319166001600160a01b0392909216919091178155338152600360205260409020805460ff19166001179055610099565b60006020828403121561007c578081fd5b81516001600160a01b0381168114610092578182fd5b9392505050565b6107c8806100a86000396000f3fe6080604052600436106100865760003560e01c8063ae18c52b11610059578063ae18c52b1461012e578063b39d7b7c14610141578063cd0a314b14610154578063cf8d8ca01461016a578063ff6271361461018c57600080fd5b8063329a27e71461008b5780637d1ea6d4146100af5780638763298b146100e757806393dfbd9e1461010c575b600080fd5b34801561009757600080fd5b506002545b6040519081526020015b60405180910390f35b3480156100bb57600080fd5b506000546100cf906001600160a01b031681565b6040516001600160a01b0390911681526020016100a6565b3480156100f357600080fd5b506100fc6101ac565b60405190151581526020016100a6565b34801561011857600080fd5b5061012c610127366004610554565b6101d5565b005b61012c61013c366004610668565b610237565b61012c61014f366004610575565b6102fa565b34801561016057600080fd5b5061009c60025481565b34801561017657600080fd5b5061017f6103cf565b6040516100a69190610680565b34801561019857600080fd5b5061012c6101a73660046105be565b61045d565b3360009081526003602052604081205460ff161515600114156101cf5750600190565b50600090565b3360008181526003602052604090205460ff1615156001146102125760405162461bcd60e51b8152600401610209906106d3565b60405180910390fd5b506001600160a01b03166000908152600360205260409020805460ff19166001179055565b3360008181526003602052604090205460ff16151560011461026b5760405162461bcd60e51b8152600401610209906106d3565b6000546040516323b872dd60e01b8152336004820152306024820152604481018490526001600160a01b03909116906323b872dd90606401602060405180830381600087803b1580156102bd57600080fd5b505af11580156102d1573d6000803e3d6000fd5b505050506040513d601f19601f820116820180604052508101906102f5919061059e565b505050565b3360008181526003602052604090205460ff16151560011461032e5760405162461bcd60e51b8152600401610209906106d3565b8160026000828254610340919061071e565b909155505060005460405163a9059cbb60e01b8152336004820152602481018490526001600160a01b039091169063a9059cbb90604401602060405180830381600087803b15801561039157600080fd5b505af11580156103a5573d6000803e3d6000fd5b505050506040513d601f19601f820116820180604052508101906103c9919061059e565b50505050565b600180546103dc90610741565b80601f016020809104026020016040519081016040528092919081815260200182805461040890610741565b80156104555780601f1061042a57610100808354040283529160200191610455565b820191906000526020600020905b81548152906001019060200180831161043857829003601f168201915b505050505081565b3360008181526003602052604090205460ff1615156001146104915760405162461bcd60e51b8152600401610209906106d3565b81516102f59060019060208501908280546104ab90610741565b90600052602060002090601f0160209004810192826104cd5760008555610513565b82601f106104e657805160ff1916838001178555610513565b82800160010185558215610513579182015b828111156105135782518255916020019190600101906104f8565b5061051f929150610523565b5090565b5b8082111561051f5760008155600101610524565b80356001600160a01b038116811461054f57600080fd5b919050565b600060208284031215610565578081fd5b61056e82610538565b9392505050565b60008060408385031215610587578081fd5b61059083610538565b946020939093013593505050565b6000602082840312156105af578081fd5b8151801515811461056e578182fd5b6000602082840312156105cf578081fd5b813567ffffffffffffffff808211156105e6578283fd5b818401915084601f8301126105f9578283fd5b81358181111561060b5761060b61077c565b604051601f8201601f19908116603f011681019083821181831017156106335761063361077c565b8160405282815287602084870101111561064b578586fd5b826020860160208301379182016020019490945295945050505050565b600060208284031215610679578081fd5b5035919050565b6000602080835283518082850152825b818110156106ac57858101830151858201604001528201610690565b818111156106bd5783604083870101525b50601f01601f1916929092016040019392505050565b6020808252602b908201527f596f75206d75737420626520746865206f776e657220746f2063616c6c20746860408201526a34b990333ab731ba34b7b760a91b606082015260800190565b60008282101561073c57634e487b7160e01b81526011600452602481fd5b500390565b600181811c9082168061075557607f821691505b6020821081141561077657634e487b7160e01b600052602260045260246000fd5b50919050565b634e487b7160e01b600052604160045260246000fdfea2646970667358221220d7c62767022f81f69f15dd819716dc541c91aed77d1930ab190e707a34efae3664736f6c63430008040033",
  "linkReferences": {},
  "deployedLinkReferences": {}
}