{
  "_format": "hh-sol-artifact-1",
  "contractName": "SharedWalletERC20",
  "sourceName": "contracts/sharedWalletERC20.sol",
  "abi": [
    {
      "inputs": [
        {
          "internalType": "address",
          "name": "addrToken",
          "type": "address"
        }
      ],
      "stateMutability": "nonpayable",
      "type": "constructor"
    },
    {
      "inputs": [
        {
          "internalType": "address",
          "name": "addrNewOwner",
          "type": "address"
        }
      ],
      "name": "addWalletOwner",
      "outputs": [],
      "stateMutability": "nonpayable",
      "type": "function"
    },
    {
      "inputs": [],
      "name": "chkWalletOwner",
      "outputs": [
        {
          "internalType": "bool",
          "name": "",
          "type": "bool"
        }
      ],
      "stateMutability": "view",
      "type": "function"
    },
    {
      "inputs": [
        {
          "internalType": "uint256",
          "name": "intAmt",
          "type": "uint256"
        }
      ],
      "name": "depositMoney",
      "outputs": [],
      "stateMutability": "nonpayable",
      "type": "function"
    },
    {
      "inputs": [],
      "name": "getWalletBalance",
      "outputs": [
        {
          "internalType": "uint256",
          "name": "",
          "type": "uint256"
        }
      ],
      "stateMutability": "view",
      "type": "function"
    },
    {
      "inputs": [],
      "name": "m_token",
      "outputs": [
        {
          "internalType": "contract IERC20",
          "name": "",
          "type": "address"
        }
      ],
      "stateMutability": "view",
      "type": "function"
    },
    {
      "inputs": [
        {
          "internalType": "string",
          "name": "_name",
          "type": "string"
        }
      ],
      "name": "setWalletName",
      "outputs": [],
      "stateMutability": "nonpayable",
      "type": "function"
    },
    {
      "inputs": [],
      "name": "walletBalance",
      "outputs": [
        {
          "internalType": "uint256",
          "name": "",
          "type": "uint256"
        }
      ],
      "stateMutability": "view",
      "type": "function"
    },
    {
      "inputs": [],
      "name": "walletName",
      "outputs": [
        {
          "internalType": "string",
          "name": "",
          "type": "string"
        }
      ],
      "stateMutability": "view",
      "type": "function"
    },
    {
      "inputs": [
        {
          "internalType": "uint256",
          "name": "intAmt",
          "type": "uint256"
        }
      ],
      "name": "withDrawMoney",
      "outputs": [],
      "stateMutability": "nonpayable",
      "type": "function"
    }
  ],
  "bytecode": "0x608060405234801561001057600080fd5b506040516107d13803806107d183398101604081905261002f9161006b565b600080546001600160a01b0319166001600160a01b0392909216919091178155338152600360205260409020805460ff19166001179055610099565b60006020828403121561007c578081fd5b81516001600160a01b0381168114610092578182fd5b9392505050565b610729806100a86000396000f3fe608060405234801561001057600080fd5b50600436106100935760003560e01c806393dfbd9e1161006657806393dfbd9e14610107578063ae18c52b1461011a578063cd0a314b1461012d578063cf8d8ca014610136578063ff6271361461014b57600080fd5b8063329a27e7146100985780637d1ea6d4146100af578063827cc452146100da5780638763298b146100ef575b600080fd5b6002545b6040519081526020015b60405180910390f35b6000546100c2906001600160a01b031681565b6040516001600160a01b0390911681526020016100a6565b6100ed6100e83660046105a7565b61015e565b005b6100f761023c565b60405190151581526020016100a6565b6100ed6101153660046104af565b610265565b6100ed6101283660046105a7565b6102be565b61009c60025481565b61013e610346565b6040516100a691906105bf565b6100ed6101593660046104fd565b6103d4565b3360008181526003602052604090205460ff16151560011461019b5760405162461bcd60e51b815260040161019290610612565b60405180910390fd5b81600260008282546101ad9190610675565b909155505060005460405163a9059cbb60e01b8152336004820152602481018490526001600160a01b039091169063a9059cbb906044015b602060405180830381600087803b1580156101ff57600080fd5b505af1158015610213573d6000803e3d6000fd5b505050506040513d601f19601f8201168201806040525081019061023791906104dd565b505050565b3360009081526003602052604081205460ff1615156001141561025f5750600190565b50600090565b3360008181526003602052604090205460ff1615156001146102995760405162461bcd60e51b815260040161019290610612565b506001600160a01b03166000908152600360205260409020805460ff19166001179055565b3360008181526003602052604090205460ff1615156001146102f25760405162461bcd60e51b815260040161019290610612565b8160026000828254610304919061065d565b90915550506000546040516323b872dd60e01b8152336004820152306024820152604481018490526001600160a01b03909116906323b872dd906064016101e5565b600180546103539061068c565b80601f016020809104026020016040519081016040528092919081815260200182805461037f9061068c565b80156103cc5780601f106103a1576101008083540402835291602001916103cc565b820191906000526020600020905b8154815290600101906020018083116103af57829003601f168201915b505050505081565b3360008181526003602052604090205460ff1615156001146104085760405162461bcd60e51b815260040161019290610612565b81516102379060019060208501908280546104229061068c565b90600052602060002090601f016020900481019282610444576000855561048a565b82601f1061045d57805160ff191683800117855561048a565b8280016001018555821561048a579182015b8281111561048a57825182559160200191906001019061046f565b5061049692915061049a565b5090565b5b80821115610496576000815560010161049b565b6000602082840312156104c0578081fd5b81356001600160a01b03811681146104d6578182fd5b9392505050565b6000602082840312156104ee578081fd5b815180151581146104d6578182fd5b60006020828403121561050e578081fd5b813567ffffffffffffffff80821115610525578283fd5b818401915084601f830112610538578283fd5b81358181111561054a5761054a6106dd565b604051601f8201601f19908116603f01168101908382118183101715610572576105726106dd565b8160405282815287602084870101111561058a578586fd5b826020860160208301379182016020019490945295945050505050565b6000602082840312156105b8578081fd5b5035919050565b6000602080835283518082850152825b818110156105eb578581018301518582016040015282016105cf565b818111156105fc5783604083870101525b50601f01601f1916929092016040019392505050565b6020808252602b908201527f596f75206d75737420626520746865206f776e657220746f2063616c6c20746860408201526a34b990333ab731ba34b7b760a91b606082015260800190565b60008219821115610670576106706106c7565b500190565b600082821015610687576106876106c7565b500390565b600181811c908216806106a057607f821691505b602082108114156106c157634e487b7160e01b600052602260045260246000fd5b50919050565b634e487b7160e01b600052601160045260246000fd5b634e487b7160e01b600052604160045260246000fdfea2646970667358221220630a6bde18020ab252a675e44c233d550312b1cbfc6ce4efacf3f6a2492bf73d64736f6c63430008040033",
  "linkReferences": {},
  "deployedLinkReferences": {}
}