{
  "_format": "hh-sol-artifact-1",
  "contractName": "SharedWalletERC20",
  "sourceName": "contracts/sharedWalletERC20.sol",
  "abi": [
    {
      "inputs": [
        {
          "internalType": "address",
          "name": "addrToken",
          "type": "address"
        }
      ],
      "stateMutability": "nonpayable",
      "type": "constructor"
    },
    {
      "inputs": [
        {
          "internalType": "address",
          "name": "addrNewOwner",
          "type": "address"
        }
      ],
      "name": "addWalletOwner",
      "outputs": [],
      "stateMutability": "nonpayable",
      "type": "function"
    },
    {
      "inputs": [],
      "name": "chkWalletOwner",
      "outputs": [
        {
          "internalType": "bool",
          "name": "",
          "type": "bool"
        }
      ],
      "stateMutability": "view",
      "type": "function"
    },
    {
      "inputs": [
        {
          "internalType": "uint256",
          "name": "intAmt",
          "type": "uint256"
        }
      ],
      "name": "depositMoney",
      "outputs": [],
      "stateMutability": "payable",
      "type": "function"
    },
    {
      "inputs": [],
      "name": "getWalletBalance",
      "outputs": [
        {
          "internalType": "uint256",
          "name": "",
          "type": "uint256"
        }
      ],
      "stateMutability": "view",
      "type": "function"
    },
    {
      "inputs": [],
      "name": "m_token",
      "outputs": [
        {
          "internalType": "contract IERC20",
          "name": "",
          "type": "address"
        }
      ],
      "stateMutability": "view",
      "type": "function"
    },
    {
      "inputs": [
        {
          "internalType": "string",
          "name": "_name",
          "type": "string"
        }
      ],
      "name": "setWalletName",
      "outputs": [],
      "stateMutability": "nonpayable",
      "type": "function"
    },
    {
      "inputs": [],
      "name": "walletBalance",
      "outputs": [
        {
          "internalType": "uint256",
          "name": "",
          "type": "uint256"
        }
      ],
      "stateMutability": "view",
      "type": "function"
    },
    {
      "inputs": [],
      "name": "walletName",
      "outputs": [
        {
          "internalType": "string",
          "name": "",
          "type": "string"
        }
      ],
      "stateMutability": "view",
      "type": "function"
    },
    {
      "inputs": [
        {
          "internalType": "uint256",
          "name": "intAmt",
          "type": "uint256"
        }
      ],
      "name": "withDrawMoney",
      "outputs": [],
      "stateMutability": "payable",
      "type": "function"
    }
  ],
  "bytecode": "0x608060405234801561001057600080fd5b506040516107e63803806107e683398101604081905261002f9161006b565b600080546001600160a01b0319166001600160a01b0392909216919091178155338152600360205260409020805460ff19166001179055610099565b60006020828403121561007c578081fd5b81516001600160a01b0381168114610092578182fd5b9392505050565b61073e806100a86000396000f3fe6080604052600436106100865760003560e01c806393dfbd9e1161005957806393dfbd9e14610121578063ae18c52b14610141578063cd0a314b14610154578063cf8d8ca01461016a578063ff6271361461018c57600080fd5b8063329a27e71461008b5780637d1ea6d4146100af578063827cc452146100e75780638763298b146100fc575b600080fd5b34801561009757600080fd5b506002545b6040519081526020015b60405180910390f35b3480156100bb57600080fd5b506000546100cf906001600160a01b031681565b6040516001600160a01b0390911681526020016100a6565b6100fa6100f53660046105de565b6101ac565b005b34801561010857600080fd5b5061011161028a565b60405190151581526020016100a6565b34801561012d57600080fd5b506100fa61013c3660046104e6565b6102b3565b6100fa61014f3660046105de565b61030c565b34801561016057600080fd5b5061009c60025481565b34801561017657600080fd5b5061017f61037d565b6040516100a691906105f6565b34801561019857600080fd5b506100fa6101a7366004610534565b61040b565b3360008181526003602052604090205460ff1615156001146101e95760405162461bcd60e51b81526004016101e090610649565b60405180910390fd5b81600260008282546101fb9190610694565b909155505060005460405163a9059cbb60e01b8152336004820152602481018490526001600160a01b039091169063a9059cbb906044015b602060405180830381600087803b15801561024d57600080fd5b505af1158015610261573d6000803e3d6000fd5b505050506040513d601f19601f820116820180604052508101906102859190610514565b505050565b3360009081526003602052604081205460ff161515600114156102ad5750600190565b50600090565b3360008181526003602052604090205460ff1615156001146102e75760405162461bcd60e51b81526004016101e090610649565b506001600160a01b03166000908152600360205260409020805460ff19166001179055565b3360008181526003602052604090205460ff1615156001146103405760405162461bcd60e51b81526004016101e090610649565b6000546040516323b872dd60e01b8152336004820152306024820152604481018490526001600160a01b03909116906323b872dd90606401610233565b6001805461038a906106b7565b80601f01602080910402602001604051908101604052809291908181526020018280546103b6906106b7565b80156104035780601f106103d857610100808354040283529160200191610403565b820191906000526020600020905b8154815290600101906020018083116103e657829003601f168201915b505050505081565b3360008181526003602052604090205460ff16151560011461043f5760405162461bcd60e51b81526004016101e090610649565b8151610285906001906020850190828054610459906106b7565b90600052602060002090601f01602090048101928261047b57600085556104c1565b82601f1061049457805160ff19168380011785556104c1565b828001600101855582156104c1579182015b828111156104c15782518255916020019190600101906104a6565b506104cd9291506104d1565b5090565b5b808211156104cd57600081556001016104d2565b6000602082840312156104f7578081fd5b81356001600160a01b038116811461050d578182fd5b9392505050565b600060208284031215610525578081fd5b8151801515811461050d578182fd5b600060208284031215610545578081fd5b813567ffffffffffffffff8082111561055c578283fd5b818401915084601f83011261056f578283fd5b813581811115610581576105816106f2565b604051601f8201601f19908116603f011681019083821181831017156105a9576105a96106f2565b816040528281528760208487010111156105c1578586fd5b826020860160208301379182016020019490945295945050505050565b6000602082840312156105ef578081fd5b5035919050565b6000602080835283518082850152825b8181101561062257858101830151858201604001528201610606565b818111156106335783604083870101525b50601f01601f1916929092016040019392505050565b6020808252602b908201527f596f75206d75737420626520746865206f776e657220746f2063616c6c20746860408201526a34b990333ab731ba34b7b760a91b606082015260800190565b6000828210156106b257634e487b7160e01b81526011600452602481fd5b500390565b600181811c908216806106cb57607f821691505b602082108114156106ec57634e487b7160e01b600052602260045260246000fd5b50919050565b634e487b7160e01b600052604160045260246000fdfea2646970667358221220793f977f782ef2f40b3307d25231cd479652d4f0cb83108ac4aae653a7628fdd64736f6c63430008040033",
  "linkReferences": {},
  "deployedLinkReferences": {}
}